:020000040800F2
:10000000A8080020F9010008C11F0008811A000893
:10001000051F0008B50200082521000800000000A7
:100020000000000000000000000000002D2000087B
:10003000B902000800000000292000083120000853
:10004000130200081302000813020008130200083C
:100050001302000813020008BD020008C5020008D0
:10006000CD020008D50200081302000813020008A0
:10007000130200081302000813020008130200080C
:1000800013020008130200081302000813020008FC
:1000900013020008130200081302000813020008EC
:1000A00013020008130200081302000813020008DC
:1000B0001302000839200008130200081302000888
:1000C00013020008130200081302000813020008BC
:1000D00013020008130200081302000813020008AC
:1000E000130200081302000813020008130200089C
:1000F000130200081302000813020008130200088C
:10010000130200081302000813020008130200087B
:10011000130200081302000813020008130200086B
:10012000130200081302000813020008130200085B
:1001300000F002F800F050F814A696E8000CB24463
:10014000B344DA4501D100F047F8BAE80F000FA632
:1001500096E83000A5EB040504EB0607AAEB0704BC
:10016000A7F101074FEA15154FEA3414A4F1010471
:10017000AC4201D300F030F813F0010F18BFFB1AA6
:1001800043F0010300F001F8DBE71847DC2700002B
:10019000FC270000103A24BF78C878C1FAD852076B
:1001A00024BF30C830C144BF04680C6070470000F1
:1001B000704700000023002400250026103A28BFC5
:1001C00078C1FBD8520728BF30C148BF0B607047C9
:1001D0001FB51FBD10B510BD00F031F81146FFF777
:1001E000F7FF02F035F800F04FF803B4FFF7F2FF25
:1001F00003BC00F057F80000094880470948004751
:10020000FEE7FEE7FEE7FEE7FEE7FEE7FEE7FEE7C6
:10021000FEE7FEE704480549054A064B7047000023
:100220003520000831010008A8020020A80800209D
:10023000A8040020A8040020704770477047754646
:1002400000F02CF8AE4605006946534620F0070042
:10025000854618B020B5FFF7DDFFBDE820404FF020
:1002600000064FF000074FF000084FF0000BAC46BF
:10027000ACE8C009ACE8C009ACE8C009ACE8C0090A
:1002800021F007018D46704710B50446AFF300809A
:100290002046BDE81040FFF7A8BF000000487047A7
:1002A0001000002001491820ABBEFEE72600020026
:1002B00070470000FEE7000070470000012000F0DA
:1002C0005BB80000022000F057B80000042000F0E6
:1002D00053B80000082000F04FB80000EFF3108082
:1002E00072B600BFFEE70000B0B5044600F050F95A
:1002F000054640F20000C2F200000078611C18BF01
:10030000044400BF00F044F9401BA042FAD3B0BD42
:1003100010B50138072888BF10BDDFE800F00519C7
:100320002B0F2B2B2B2300BF40F27804C2F20004CA
:10033000206801F0FFFD206010BD00BF40F278048E
:10034000C2F20004A06801F023FEA06010BD00BF4F
:1003500040F27804C2F20004606801F0D5FD6060EC
:1003600010BD00BF40F27804C2F20004E06801F062
:10037000F7FDE06010BD000040F21441C4F201013D
:100380000A68024214BF08607047FFF7C1BF00004F
:100390002DE9F04F82B00E68002E00F0E980A0F148
:1003A000804241F6004540F20043A2F58432C4F297
:1003B00001050624C4F201034FEAB227A84208BF90
:1003C00005244FF0000E4FF001080F254FF0000AF2
:1003D0004FF0000B052F38BF4FEAB224009408E01D
:1003E0000E680AF1010A36FA0AF20EF1040E00F064
:1003F000BF8008FA0AFC16EA0C09F1D04E684FF6E5
:10040000FF72C1F21002964212DC122E56D8DFE8BB
:1004100006F0350B4D4955555555555555555555BE
:1004200055555545510000BFD1F80CB046E000BF0E
:100430004FF6FF72C1F2210296420FDC0022C1F298
:10044000110296421AD00022C1F21202964215D031
:100450000022C1F22102964210D02FE00022C1F208
:10046000220296420AD00022C1F23102964205D001
:100470000022C1F23202964220D100BF8A684AB1FE
:10048000012A14BFC0F814C0C0F810C04FF0080B08
:1004900014E000BF4FF0040B10E000BFCA6802F187
:1004A000040B0BE04FF0000B08E000BFCA6802F13C
:1004B000080B03E0CA6802F10C0B00BF0246744649
:1004C000B9F5807F24BF0432203C166805FA04F792
:1004D00026EA07070BFA04F637431760CA79D206F3
:1004E0007FF57EAF41F21807C4F202073A684FF673
:1004F000084542F001023A603A68CFF6FF7502F013
:1005000001020192019A2AF003021A440F2457595A
:100510000EF00C06B440A743009C04FA06F63743DD
:1005200057514E6840F20C44F2029A6854BF22EAD6
:10053000090242EA0902C4F201049A602268B70281
:1005400054BF22EA090242EA090222605A68B7034C
:1005500054BF22EA090242EA09025A600F251A68CA
:10056000F70354BF22EA090242EA09021A6037E798
:1005700002B0BDE8F08F00008068084018BF01207D
:1005800070470000002A08BF09040161704700009D
:1005900040F2A020C2F200000068704740F2000064
:1005A00040F2A021C2F20000C2F2000100780A6805
:1005B000104408607047000080B542F20000C4F2A9
:1005C0000200016841F010010160032000F08CF886
:1005D0000F2000F005F800F027F8002080BD000093
:1005E00070B540F20006C2F2000640F2080132780F
:1005F000C2F200014FF47A730968B3FBF2F20446C9
:10060000B1FBF2F1084600F085FB0F2C4FF001051D
:1006100008D838B94FF0FF3021460022002500F0FD
:1006200037F87460284670BD82B041F21800C4F2F9
:1006300002000168022241F001010160016801F03D
:10064000010101910199416841F080514160406888
:1006500000F08050009000980420C4F2010001686E
:1006600062F31A61016002B070470000002848BFC1
:10067000704700F01F01012202FA01F11C2202EA78
:10068000D0004EF20012CEF20002815070470000FE
:1006900010B54EF60C5CCEF2000CDCF80030C3F363
:1006A000022E8EF00704042C28BF0424BEF103039D
:1006B0004FF0FF3E0EFA04F438BF0023A1439940E7
:1006C0000EFA03F39A43114300F00F0200F1604366
:1006D0000901043A03F564436244002848BF02F16B
:1006E0000C03197010BD00004EF60C51CEF2000143
:1006F0000A684FF6FF031A4060F30A2242F0806056
:1007000040F0FD7008607047002804BF012070476A
:100710002DE9F04381B042F20008C4F20208044619
:10072000D8F800000D4600F0070088420CD2D8F837
:10073000000020F007002843C8F80000D8F80000A7
:1007400000F00700A8426CD1206841F2040981073B
:10075000C4F2020917D5410705D5D9F8001041F4B4
:10076000E061C9F80010010705D5D9F8001041F47F
:100770006051C9F80010D9F80010A26821F0F0010A
:100780001143C9F80010C00742D1D8F8000000F0AA
:100790000700A8420CD9D8F8000020F00700284331
:1007A000C8F80000D8F8000000F00700A84238D1CF
:1007B0002068410707D5D9F80010E26821F4E0610C
:1007C0001143C9F80010000708D5D9F800002169C5
:1007D00020F4605040EAC100C9F80000D9F80020B8
:1007E00002F00C00082841F20020C0F27A004DD13E
:1007F00042F65813C2F38341C0F60003595CD2039A
:1008000038D440F60010C0F23D0048433EE000BF3F
:10081000606859F8041C022808D0012826D18903F1
:1008200006D4012001B0BDE8F08300BF8901F8D5EE
:10083000D9F8001021F003010843C9F80000FFF7C0
:10084000A7FE064641F28837D9F80000616800F03B
:100850000C00B0EB810F98D0FFF79AFE801BB842D6
:10086000F2D9032001B0BDE8F08300BF8907D8D5D5
:10087000DEE700BFD9F8002042F65613C2F340422B
:10088000C0F600039A5C4843B0FBF2F0D9F80010C0
:1008900042F63E12C1F30311C0F60002515C40F271
:1008A000080220FA01F140F20400C2F200000068E0
:1008B000C2F200021160FFF793FE002001B0BDE814
:1008C000F083000040F2080041F20401C2F200008F
:1008D000C4F202010068096842F64E12C1F3022117
:1008E000C0F60002515CC8407047000040F20800AA
:1008F00041F20401C2F20000C4F20201006809687A
:1009000042F64E12C1F3C221C0F60002515CC8404B
:1009100070470000002804BF012070472DE9F04116
:1009200082B00446007841F20006C007C4F2020615
:100930000CD0706800F00C00042840F08180306812
:10094000800303D56068002800F046812078800786
:100950001BD5706810F00C0F09D0706800F00C0007
:10096000082840F087807068C00300F183803068F9
:10097000800703D52069012840F02E813068616925
:1009800020F0F80040EAC10030602078000713D45E
:10099000207840072CD4E569002D00F0188170689C
:1009A00000F00C00082840F0A780012D40F00481E1
:1009B000012002B0BDE8F081A069002800F0848029
:1009C0000020C4F242200121C0F88014FFF7E0FDAE
:1009D000054600BF706A800700F1B280FFF7D8FDBE
:1009E000401B0228F6D9032002B0BDE8F08100BF09
:1009F000F0695FEAC00808D4F06940F08050F06107
:100A0000F06900F080500090009847F20007C4F2AF
:100A100000073868C00549D4386840F480703860F1
:100A2000FFF7B6FD054600BF3868C0053ED4FFF7A6
:100A3000AFFD401B6428F7D9032002B0BDE8F08168
:100A4000706800F00C00082803D17068C0033FF5FF
:100A500076AF61683068002900F00C81B1F5A02FF5
:100A600000F00081B1F5803F40F01A8140F4803001
:100A70001CE100BF2069002840F20000C4F24220BF
:100A800000F0888001210160FFF782FD054600BF6C
:100A9000306880073FF572AFFFF77AFD401B0228F0
:100AA000F6D9032002B0BDE8F08100BFE168306AEA
:100AB000002900F09D80052900F09280012940F076
:100AC000AF8040F00100B1E00020C4F242200021DC
:100AD000C0F88014FFF75CFD054600BF706A800710
:100AE0007FF556AFFFF754FD401B0228F6D90320CF
:100AF00002B0BDE8F08100BF0027C4F24227002009
:100B00003866FFF745FD022D05460DD1306880019E
:100B100040F1DE80FFF73CFD401B02284FF0030050
:100B2000F4D902B0BDE8F081306880014FD5FFF7FD
:100B30002FFD401B02284FF00300F5D9F1E700BF5D
:100B400040F20800C2F20000006844F6D351C1F23E
:100B50006201A0FB0101480A019000BF00BF01989B
:100B6000411E002801913FF413AF00BF0198411EC0
:100B7000002801913FF40CAF00BF0198411E0028EE
:100B800001913FF405AF00BF0198411E002801917B
:100B9000E4D1FDE600210160FFF7FAFC054600BF45
:100BA000306880077FF5F1AEFFF7F2FC401B0228AA
:100BB0004FF00300F4D9B4E77068216A00F4803282
:100BC0008A4209D1616A00F47010884204D1002081
:100BD00002B0BDE8F08100BF012002B0BDE8F081A5
:100BE00040F004003062306A40F001001EE000BFB7
:100BF00020F001003062306A20F004003062FFF71C
:100C0000C7FC054641F28837306A800720D5FFF7D8
:100C1000BFFC401BB8424FF00300F5D981E700BF8D
:100C200020F001003062306A20F004003062FFF7EB
:100C3000AFFC054641F28837306A800708D4FFF7D9
:100C4000A7FC401BB842F7D9032002B0BDE8F081F1
:100C5000B8F1000F3FF59FAEF06920F08050F061D1
:100C600099E600BF40F480203060306840F4803066
:100C70001CE000BF20F480303060306820F4802019
:100C80003060FFF785FC0546306880037FF55EAE77
:100C9000FFF77EFC401B64284FF00300F4D940E7C7
:100CA00020F480303060306820F480203060FFF71E
:100CB0006FFC0546306880033FF548AEFFF768FCDF
:100CC000401B6428F6D9032002B0BDE8F08100BFC4
:100CD000206AB0F5803F05D17168A26821F4003127
:100CE000114371607168626A21F474111143084301
:100CF000706001203866FFF74BFC044630688001C5
:100D00003FF565AFFFF744FC001B02284FF00300DE
:100D1000F4D906E7411E0020B0EB116F1CBF012083
:100D200070474EF21002CEF2000251604EF623518F
:100D3000CEF20001F0230B70072190601160704724
:100D4000704700007047000090F83C20012A4FF0E7
:100D5000020242D010B580F83D200268D2F804E0CB
:100D6000D2F808C00C682EF07003234340F6FF341D
:100D7000C4F20004A242536010DCB2F1804F1FD0D5
:100D800040F20043C4F200039A4219D040F6000337
:100D9000C4F200039A4213D017E000BF40F60043AC
:100DA000C4F200039A420BD043F20043C4F20103A1
:100DB0009A4205D042F60043C4F201039A4204D19C
:100DC00049682CF08003194391600121002280F8CA
:100DD0003D1080F83C20BDE81040104670470000F0
:100DE000002804BF0120704710B5044690F83D006C
:100DF00028B9002084F83C00204600F01FF80220AB
:100E000084F83D002068211D01F01CF9012084F8C0
:100E1000460084F83E0084F83F0084F8400084F8DF
:100E2000410084F8420084F8430084F8440084F8C8
:100E3000450084F83D00002010BD000080B582B060
:100E4000006840F60001C4F2000188421ED040F262
:100E50000041C4F20001884225D141F21C00C4F2D5
:100E600002000168002241F00201016000680021D7
:100E700000F00200019001981D20FFF709FC1D20E1
:100E800002B0BDE88040FFF7F1BB00BF41F21C009B
:100E9000C4F20200016841F004010160006800F042
:100EA00004000090009802B080BD000090F83D1052
:100EB00001291CBF01207047022180F83D10006805
:100EC00040F6FF32C168C4F20002904241F00101D5
:100ED000C1600FDCB0F1804F1ED040F20041C4F27F
:100EE0000001884218D040F60001C4F20001884297
:100EF00012D018E040F60041C4F2000188420BD045
:100F000043F20041C4F20101884205D042F600419B
:100F1000C4F20101884206D1816801F00701062967
:100F200004BF00207047016841F00101016000200A
:100F30007047000090F83C20012A4FF002026CD06C
:100F400080B580F83D20D0F800C04FF67772DCF80D
:100F5000083023EA0202CCF808200B684F2B29DC6A
:100F60001F2B45DD202B46D0302B44D0402B40F0AA
:100F7000AF80D1F804E0C968DCF82030DCF820202C
:100F800022F00102CCF82020DCF8182022F0F00238
:100F900042EA011123F00A0242EA0E02CCF81810CC
:100FA000CCF82020DCF8081041F0470121F0300196
:100FB00028E000BF6F2B33DDB3F5005F74D0B3F5CD
:100FC000805F21D0702B40F08380D1E901E3C968B4
:100FD000DCF8082043EA0E0322F47F4243EA0121B1
:100FE0001143CCF80810DCF8081041F0770109E053
:100FF0000BB1102B6CD1DCF8081021F070011943F3
:1010000041F00701CCF808100022012180F83D10C2
:10101000002180F83C10BDE880401046704700BFBA
:10102000502B21D0602B53D1D1F804E0C968DCF8F3
:101030002030DCF8202022F01002CCF82020DCF850
:10104000182022F4704242EA013123F0A00242EA61
:101050000E12CCF81810CCF82020DCF8081041F063
:10106000670121F01001CDE7D1F804E0C968DCF890
:101070002030DCF8202022F00102CCF82020DCF81F
:10108000182022F0F00242EA011123F00A0242EA9B
:101090000E02CCF81810CCF82020DCF8081041F033
:1010A000570121F02001ADE7D1E901E3C968DCF87F
:1010B000082043EA0E0322F47F4243EA0121114350
:1010C000CCF80810DCF8081041F480419AE700BF22
:1010D00001229AE77047000070B504460068C568B1
:1010E0000669B10716D515F0020113D06FF00201A1
:1010F0000161012121778069800703D02046FFF735
:10110000E9FF05E0204600F0FBF8204600F06CFA0D
:1011100000202077700719D515F0040016D020683C
:101120006FF00401016102212177806910F4407F92
:1011300004D02046FFF7CEFF06E000BF204600F0B7
:10114000DFF8204600F050FA00202077300717D54E
:1011500015F0080014D020686FF008010161042127
:101160002177C069800703D02046FFF7B3FF05E071
:10117000204600F0C5F8204600F036FA002020771F
:10118000F00619D515F0100016D020686FF0100188
:10119000016108212177C06910F4407F04D0204606
:1011A000FFF798FF06E000BF204600F0A9F82046B0
:1011B00000F01AFA00202077F00718BF15F00100A0
:1011C00002D1300609D412E020686FF001010161FC
:1011D000204600F07BFA300609D515F0800006D0D5
:1011E00020686FF0800101612046FFF7A9FD7006BD
:1011F00009D515F0400006D020686FF0400101616C
:10120000204600F05BFBB00658BF70BD15F0200013
:1012100008D021686FF0200220460A61BDE87040C6
:10122000FFF790BD70BD000080B586B0006840F645
:101230000001C4F2000188424FF00001CDE9041121
:10124000CDE9021134D040F20041C4F200018842DD
:1012500012D0B0F1804F50D141F21800C4F2020018
:10126000016841F004010160006800F00400019091
:1012700001980F200EE000BF41F21800C4F20200F6
:10128000016841F004010160006800F00400019071
:1012900001984020029002200390059040F6000043
:1012A000C4F2010002A9FFF773F806B080BD00BFC9
:1012B00041F21800C4F20200016841F0200101600F
:1012C000006802A900F02000019001984FF47040DE
:1012D000029002200390059040F60000C4F2010045
:1012E00000F54060FFF754F80420C4F201000168E3
:1012F00041F0E06141F48051016006B080BD000022
:101300007047000090F83C30012B04BF022070476A
:101310004FEAB202032A00F21D812DE9F041DFE815
:1013200002F003C7479100BF036843F200461D6AFD
:101330001A6A25F0020522F001021A621A465C6858
:1013400052F818CF8F68D1F800E0C4F20106B3421A
:1013500045EA070505D042F60047C4F20107BB4243
:1013600005D1CF6825F00C0527F004073D43B342B3
:1013700005D042F60046C4F20106B34205D1D1E9D8
:10138000056724F4407434433C432CF0730747EA68
:101390000E075C609F614F6809695F631D629F690A
:1013A00047F008079F619F6927F004079F61C6E027
:1013B000036843F200461D6A1A6A25F4007522F498
:1013C00080721A621A46D3F804C052F81CEF8F6874
:1013D000D1F80080C4F20106B34245EA072505D0E2
:1013E00042F60047C4F20107BB4208D1CF6840F281
:1013F000FF443F0225F4406527EA04042543B34235
:1014000005D042F60044C4F20104A34206D1D1E95A
:1014100005462CF44057264347EA061C2EF0730776
:1014200047EA0807C3F804C0DF614F680969DF6352
:101430001D62DF6947F00807DF61DF6927F00407F5
:10144000DF617CE0036843F20047D3F820C01A6AEA
:10145000C4F2010722F480521A621A465C6852F8FC
:101460001C5FD1F800E08E68BB4205D042F6004711
:10147000C4F20107BB4204D14F6924F4804444EA1A
:1014800087142CF4005747EA063725F4E64646EA67
:101490000E265C60DE614E6809691E641F62DF69AA
:1014A00047F40067DF61DF6927F48067DF6145E0AB
:1014B000036843F200481D6A1A6A25F0200522F0ED
:1014C00010021A621A465C6852F818CF8F68D1F879
:1014D00000E0C4F20108434545EA071505D042F68D
:1014E0000047C4F20107BB4207D1CF686FF0400646
:1014F00025F0C00506EA07163543434505D042F6F8
:101500000046C4F20106B34206D1D1E9056724F4CE
:1015100040643E4344EA86042CF4E64747EA0E273B
:101520005C609F614F6809699F631D629F6947F412
:1015300000679F619F6927F480679F6109021368B4
:10154000194311600021BDE8F041002280F83C20E1
:10155000084670470121002280F83C200846704769
:10156000002804BF0120704710B5044690F83D00E4
:1015700028B9002084F83C00204600F01FF8022023
:1015800084F83D002068211D00F05CFD012084F8F6
:10159000460084F83E0084F83F0084F8400084F858
:1015A000410084F8420084F8430084F8440084F841
:1015B000450084F83D00002010BD00000068B0F137
:1015C000804F18BF704781B041F21C00C4F2020086
:1015D000016841F001010160006800F00100009025
:1015E000009801B07047000070470000C1B10429A5
:1015F00008D0082914BF41224022825C012A05D06C
:1016000016E000BF3F22825C012A11D10222082984
:1016100010D0042914BF80F8412080F83F200BE04F
:1016200090F83E20012A03D1022280F83E2003E0F8
:101630000120704780F84020006801F01F0101225E
:10164000036A02FA01F123EA01020262026A11430B
:1016500040F6FF32C4F20002904201620EDCB0F1AB
:10166000804F25D040F20041C4F2000188421FD0D3
:1016700040F60001C4F2000118E000BF40F600414E
:10168000C4F20001884213D043F20042C4F20102C6
:1016900042F600419042C4F2010101D088420ED1CD
:1016A000436C904243F40043436401D0884206D126
:1016B000816801F00701062904BF00207047016816
:1016C00041F0010101600020704700002DE9F04F5A
:1016D00081B040F28011C2F20001884240F0EA80FD
:1016E00040F27005C2F20005D5E900010131421C4B
:1016F0002728C5E90021C0F2DD8000202860AE68FF
:10170000A869AC6B301A00F0C1FF44F20001CCF2C2
:101710000C4100F0F9FE4DF20A7BC3F6235B5946FB
:1017200000F0F2FE0746A8622046AE6100F0AEFF70
:1017300040F2000AC4F2C00A514600F0BFFF4FF663
:101740000069C4F2FF69494600F0DEFE014640F23E
:10175000D800C2F200003A465B46064600F032FC72
:10176000A864D5E90E07D5F80C80EC6900F08EFF6F
:10177000514600F0A3FF494600F0C6FEA865A8EB5D
:10178000040000F083FF44F20001CCF20C4100F0B1
:10179000BBFE594600F0B8FE0446E8623846C5F87C
:1017A0001C8000F073FF514600F088FF494600F0AE
:1017B000ABFE014606F1180022465B4600F002FC33
:1017C000E864D5E90F072E692C6A00F05FFF5146E7
:1017D00000F074FF494600F097FEE865301B00F00A
:1017E00055FF44F20008CCF20C48414600F08CFE54
:1017F000594600F089FE0446286338462E6200F000
:1018000045FF514600F05AFF494600F07DFE014673
:1018100040F2D800C2F20000303022465B4600F0B1
:10182000D1FB2865D5E910076E696C6A00F02EFFC0
:10183000514600F043FF494600F066FE2866301B23
:1018400000F024FF414600F05FFE594600F05CFEC8
:101850000446686338466E6200F018FF514600F097
:101860002DFF494600F050FE014640F2D800C2F27A
:101870000000483022465B4600F0A4FB696CAC6B6C
:101880006865084600F002FF514600F017FF494620
:1018900000F03AFE6866204600F0B8FCE86B00F005
:1018A00087FC286C00F0AEFD686C01B0BDE8F04F1D
:1018B00000F07CBD01B0BDE8F08F00007047000073
:1018C000002804BF0120704710B5044690F841007D
:1018D00028B9002084F84000204600F063F8242056
:1018E00084F841002068D4E90212C36823F400534D
:1018F000C360036923F440531A430261D4E904230B
:101900001143C268194341F20C639A431143C16009
:101910004169A26921F44071114343F60002C4F207
:1019200001029042416103D0FEF7CCFF02E000BF0C
:10193000FEF7DCFFD4E90023192148439900B0FBEE
:10194000F1F048F21F5CC5F2EB1CA0FB0C314FF626
:101950009C734909C0F6FF7301FB0300322303EBBC
:101960000010A0FB0C03F02000EA531000EB011064
:10197000C3F34311084490601069202120F4904083
:101980001061506920F02A005061D06840F4005086
:10199000D0600020606484F8411084F842106063D5
:1019A00010BD000070B586B00146096845F200021E
:1019B00041F20000C4F20002C4F2010091424FF073
:1019C0000002CDE90422CDE9022221D044F60042F2
:1019D000C4F20002914250D141F21801C4F2020156
:1019E0004A684FF4006642F400224A604A6804469E
:1019F00002F400220192019A0A6842F010020A6081
:101A0000096801F01001019101994FF4806123E010
:101A100041F21801C4F202014A6800F5806442F400
:101A200080124A604A68042602F480120192019AE8
:101A30000A6842F010020A600A6802F0100201927D
:101A4000019A0A6842F020020A60096801F0200148
:101A5000019101994FF480510291022103910321D8
:101A600002AD05912946FEF793FC0020CDE9030065
:101A7000204629460296FEF78BFC06B070BD00009A
:101A8000FEE700002DE9F04F85B04FF0000841F26D
:101A90001800CDE90388CDE90188C4F2020001688D
:101AA00040F6000B41F0400101600168C4F2010BF7
:101AB00001F040010091009901680BF5006541F0CB
:101AC000800101600168002201F08001009100990D
:101AD00001684FF00F0A41F010010160016801F048
:101AE000100100910099016841F004010160016852
:101AF00001F0040100910099016841F020010160AA
:101B0000016801F0200100910099016841F008018D
:101B1000016000680F2100F008000090009828463E
:101B2000FEF730FD58464FF4F15100224FF4F159C1
:101B3000FEF728FD0020C1F2110001AE029002273D
:101B40000BF580503146CDF804A00397FEF720FC3A
:101B5000FF20CDE901080BF5A05031460397FEF7B1
:101B600017FC012428463146CDF804A0CDE90248EF
:101B70000497FEF70DFC58463146CDE90194CDE9B6
:101B80000387FEF705FC4FF47070CDE901080BF5F3
:101B9000806031460397FEF7FBFB06200021002200
:101BA000FEF776FD0620FEF761FD072000210022EA
:101BB000FEF76EFD0720FEF759FD082000210022E8
:101BC000FEF766FD0820FEF751FD092000210022E6
:101BD000FEF75EFD0920FEF749FD05B0BDE8F08F78
:101BE00080B58AB040F238100021C2F200004FF0F8
:101BF0008042472344F61F6CCDE90811CDE9061158
:101C0000CDE90411C0E90023C0E9021C0161816132
:101C1000FFF7A6FC002818BFFEF760FB40F2381063
:101C2000C2F2000008A9FFF78FF8002818BFFEF7DE
:101C300055FB602001900020CDE90200059040F2A4
:101C40003810C2F2000001A90022FFF75BFB002858
:101C500018BFFEF743FB40F23810C2F2000001A9A2
:101C60000422FFF74FFB002818BFFEF737FB40F2B6
:101C70003810C2F2000001A90822FFF743FB002838
:101C800018BFFEF72BFB40F23810C2F2000001A98A
:101C90000C22FFF737FB002818BFFEF71FFB40F2AE
:101CA0003810C2F20000FFF7BFFA0AB080BD000092
:101CB00010B58EB040F2801040F200420021C2F216
:101CC0000000C4F20002472340F2E7340D91CDE951
:101CD0000B110991CDE90711CDE90511CDE90311EA
:101CE000CDE90111C0E90023C0E90214016181615D
:101CF000FFF776F8002818BFFEF7F0FA4FF480508F
:101D00000A9040F28010C2F200000AA9FFF712F90F
:101D1000002818BFFEF7E2FA40F28010C2F200007D
:101D2000FFF71EFC002818BFFEF7D8FA40F280101B
:101D30000024C2F2000008A9CDE90844FFF704F826
:101D4000002818BFFEF7CAFA6020CDE9010440F26E
:101D50008010C2F2000001A9002203940594FFF74D
:101D6000D1FA002818BFFEF7B9FA40F28010C2F28B
:101D70000000FFF759FA0EB010BD000010B58EB08C
:101D800040F2C81040F600020021C2F20000C4F286
:101D9000000247F6FF730D91CDE90B110991CDE9D2
:101DA0000711CDE90511CDE90311CDE90111C0E914
:101DB0000021C0E9021301618161FFF711F80028D9
:101DC00018BFFEF78BFA4FF480500A9040F2C8100B
:101DD000C2F200000AA9FFF7ADF8002818BFFEF70D
:101DE0007DFA40F2C810C2F20000FFF7B9FB0028EC
:101DF00018BFFEF773FA40F2C8100024C2F20000C8
:101E000008A9CDE90844FEF79FFF002818BFFEF798
:101E100065FA6020CDE9010440F2C810C2F200006A
:101E200001A9002203940594FFF76CFA002818BF5B
:101E3000FEF754FA40F2C810C2F2000001A90422D1
:101E4000FFF760FA002818BFFEF748FA40F2C81002
:101E5000C2F2000001A90822FFF754FA002818BFB7
:101E6000FEF73CFA40F2C810C2F2000001A90C22B1
:101E7000FFF748FA002818BFFEF730FA40F2C81002
:101E8000C2F20000FFF7D0F90EB010BD80B540F2ED
:101E9000102044F60041C2F20000C4F20001002309
:101EA0004FF00C0C4FF4E13280E80E00C0E9033330
:101EB000C0E905C3C361FFF703FD002808BF80BD6B
:101EC000BDE88040FEF70ABA80B540F2582045F2DE
:101ED0000001C2F20000C4F2000100234FF00C0C1C
:101EE0004FF4E13280E80E00C0E90333C0E905C3D6
:101EF000C361FFF7E5FC002808BF80BDBDE8804056
:101F0000FEF7ECB9FEE70000B0B540F60045C4F2BC
:101F10000105044628468021FEF72EFB40B12846E5
:101F20008021FEF729FB012808BF013C2046B0BDF7
:101F3000601CB0BDB0B540F60045C4F201050446D2
:101F400028464021FEF718FB40B128464021FEF705
:101F500013FB012808BF013C2046B0BD601CB0BD8A
:101F6000B0B540F60045C4F20105044628464FF4DA
:101F70000071FEF701FB48B128464FF40071FEF7EF
:101F8000FBFA012808BF01342046B0BD601EB0BD79
:101F9000B0B540F60045C4F20105044628464FF4AA
:101FA0008071FEF7E9FA48B128464FF48071FEF7D8
:101FB000E3FA012808BF01342046B0BD601EB0BD61
:101FC000FEE700002DE9F0470446084611469A4610
:101FD00000F040FC94E88202E568064600F06EFBE3
:101FE00080463046514600F069FB294600F02AFA47
:101FF0003946E06000F062FB21690546304600F09A
:1020000029FC0146484600F059FB514600F07CFA95
:10201000074640462946266100F014FA394600F08A
:1020200011FABDE8F087000070470000704700001B
:10203000FEF7B4BA7047000040F28010C2F2000010
:10204000FFF74AB810B540F6FF320368C4F2000249
:1020500040F6004E43F2004C9042C4F2000EC4F22F
:10206000010C21DCB0F1804F28D040F20044C4F2D2
:102070000004A04222D040F60004C4F20004A042B2
:102080001CD0904220DCB0F1804F27D040F20042BB
:10209000C4F20002904221D040F60002C4F20002D5
:1020A00090421BD01EE000BF704507D0604505D0B0
:1020B00042F60044C4F20104A042E2D14C6823F08D
:1020C000700323439042DEDD704507D0604505D0A4
:1020D00042F60042C4F20102904203D1CA6823F4DE
:1020E000407313434C6923F08002D1F800E08B6801
:1020F000224360450260C362C0F828E005D042F682
:102100000042C4F20102904201D109690163012138
:1021100041610169C90708BF10BD016921F00101D2
:10212000016110BDFEE70000F0B581B040F600048B
:10213000C4F2010405462046202100220026FEF7B5
:1021400021FA40F23817C2F2000738684563856308
:10215000C563056440F6B830FEF7C6F840F2801556
:10216000C2F200052868FA2141634FF4C860FEF707
:10217000BBF8204620210122FEF704FA4FF4C86084
:10218000FEF7B2F828684663386846638663C6631C
:10219000066401B0F0BD00004FF07E514CF6CD4218
:1021A0000023C3F64C6280E80E00C0E90333704799
:1021B00070B540F60006C4F201060446002200286D
:1021C0004FEAD07530464FF48051C8BF0122FEF768
:1021D000D9F930464FF400612A46FEF7D3F940F2B0
:1021E000C810C2F20000002C48BF64420068C463FB
:1021F00070BD00004FF07E514CF6CD420023C3F677
:102200004C6280E80E00C0E90333704770B540F6B9
:102210000006C4F201060446002200284FEAD075E9
:1022200030464FF48061C8BF0122FEF7ABF930465B
:102230004FF400712A46FEF7A5F940F2C810C2F229
:102240000000002C48BF64420068046470BD0000B8
:1022500090B0FEF7B1F900240120CDE90B44CDE99F
:10226000094406900A904FF4E0104FF480310225A3
:102270000F9006A8CDE90714CDE90D51FEF74AFBF2
:1022800020B1EFF3108072B6FEE700BF0F20CDE95A
:1022900001054FF48060CDE9040401A802210394F4
:1022A000FEF732FA20B1EFF3108072B6FEE700BFFE
:1022B000FFF7E8FBFFF762FDFFF792FCFFF7F8FC82
:1022C000FFF7E4FDFFF700FE40F23814C2F200040D
:1022D00020460021FFF78AF920460421FFF786F9FE
:1022E00020460821FFF782F920460C21FFF77EF9EE
:1022F00040F28015C2F2000528460021FFF776F96A
:1023000040F2C816C2F2000630460021FFF76EF90F
:1023100030460421FFF76AF930460821FFF766F9D5
:1023200030460C21FFF762F92846FEF7BFFD40F268
:10233000D805C2F200052846FFF75CFF05F118003A
:10234000FFF72AFF05F1300000F050F805F14800D2
:1023500000F020F84FF4FA604FF4FA65FDF7C4FF7F
:10236000206845638563C56305644FF4FA60FDF733
:10237000BBFF20684FF47A7141638163C1630164DC
:102380004FF4FA60FDF7B0FF4FF4FA60FFF7CCFEB0
:10239000FEE700004FF07E514CF6CD420023C3F61D
:1023A0004C6280E80E00C0E90333704770B541F21B
:1023B0000006C4F201060446002200284FEAD07548
:1023C00030464FF00101C8BF0122FEF7DBF830466E
:1023D00002212A46FEF7D6F840F2C810C2F20000E9
:1023E000002C48BF64420068446370BD4FF07E51CA
:1023F0004CF6CD420023C3F64C6280E80E00C0E9E3
:102400000333704770B541F20006C4F2010604467A
:10241000002200284FEAD07530464FF00401C8BFB3
:102420000122FEF7AFF8304608212A46FEF7AAF847
:1024300040F2C810C2F20000002C48BF644200689D
:10244000846370BD90EA010F48BF81F0004100F144
:102450000882421A3CBF801A89184FEAD052A2EB78
:10246000D1534FF07F4C1CEA410F18BF9CEA026F1A
:1024700000F03B804FF0004C4CEA00204CEA012178
:1024800021FA03FC10EB0C0C1ED202F1FF325FEAC2
:102490001C2040EBC25038BF70471CF07F0F4FEA42
:1024A000400C18BFBCF17F4F38BF7047C3F1200309
:1024B000994008BF20F00100BCF17F4F38BF704742
:1024C000A0F1C04000F0C1B94FEA3C00000A40EB67
:1024D000C25028BF1CF0FF0F4FEA400CE6D018BFD7
:1024E000BCF17F4F38BF7047EAE79CEA026F05D026
:1024F00010EA5C0F08BF00F00040704710B500F014
:102500005EF900BF64FBBE3E4FF47F0C1CEAD012A4
:102510001EBF1CEAD11392EA0C0F93EA0C0F00F0D5
:10252000858090EA010F48BF42F4807240F4000CAD
:1025300041F400002CF07F4120F07F4000B5A2EB79
:10254000030281420FF2081CACEB504E9EF800E0F3
:10255000C0F100004FEA4E0E00FB0EFC38BF4900F0
:102560004FEA2C1C0CFB0EF34FEACE1E0EEB635E03
:102570004FEA112C0EFB0CFC4FEAC1214FEA1C5311
:1025800000FB031102F5FA024FEA112C0EFB0CFCC2
:102590004FEA01314FEADC4C00FB0C1142EB2242C6
:1025A000C14228BF09184CEB03335DF804EB10EB74
:1025B000410143EBC250B2F57C0F38BF704729D5BB
:1025C00012F0F00F1CBF00F1C04000F00040704757
:1025D000008182838485868788898B8C8D8E8F91FC
:1025E0009293959697999A9C9D9FA0A2A3A5A7A820
:1025F000AAACAEB0B2B3B5B7B9BCBEC0C2C5C7C94C
:10260000CCCED1D4D7D9DCDFE2E6E9ECF0F3F7FAAF
:10261000FE0000004FEA400C0CF1807CBCF17E4FC4
:1026200028BF7047B0F1C04000F00FB90CEAD113D9
:1026300090EA010F48BF42F48072624538BF63459B
:1026400007D213F47F0F16D080EA010000F000409B
:10265000704710B500F0B3F8097EFC3E00F005B8F5
:1026600080EA010000F00040704780EA010000F0BD
:10267000004000F0EAB812F47F0F04BF0248704730
:1026800080EA010000F0E1B80000C07F10F00041D6
:1026900048BF4042B0FA80F310FA03F2C3F19D0341
:1026A0000BD051EAC35101EB1220530638BF7047DB
:1026B00000F1010008BF20F0010070474FF47F0CCB
:1026C0001CEAD0121EBF1CEAD11392EA0C0F93EA47
:1026D0000C0F00F0478090EA010F48BF42F480726F
:1026E0004FF0004C4CEA00204CEA012102EB0302BF
:1026F000A0FB0113A2F50002002918BF43F001035B
:102700005B0028BF4FEA330342EB22425FEA132CFF
:102710004CEBC2502EBFBCEB436FB2F57C0F704741
:102720004FEA036CBCF1004F08BF20F00100B2F586
:102730007C0F38BF70470BD582F0FF0212F5803F47
:10274000C8BF704700F1C040D8BF00F000407047DC
:1027500000F5000C5FEA4C0C48BF7047B0F1C04078
:1027600000F073B80CEAD11390EA010F48BF42F4AD
:102770008072624538BF634504D280EA010000F0F0
:102780000040704710B500F01AF800BF8900013E04
:1027900000F007B800F009B85FEA410C5FEA1C6C72
:1027A00008D080EA010000F050B85FEA400C5FEA10
:1027B0001C6CF6D14FF00040A0F5800070470EF180
:1027C000020E2EF0030E5EF8044B244204D44FEAAE
:1027D0004102B2F17F4F11D84FEA4003B3F17F4F6E
:1027E0000CD80ED14FEAD07C0CEB4C0C0CF1020C47
:1027F000B2F17F4F08BF4CEBD17C04E04FF0080CE6
:1028000001E04FEAD17C0CEB4C0324FA03F404F012
:102810000704B4F1040C06D20EEB840CBDE81040A2
:102820004CF0010C6047DFE80CF0070802024FF0A3
:102830000040A0F5800010BD0846420018BFD2F14C
:10284000807288BF00F0004010BDFF2141EAD050E7
:10285000C005704790EA010F48BF81F000413FF585
:10286000F8AD421A04D882F00042A0EB02001144F5
:102870004FEAD052A2EBD1534FF07F4C1CEA410FEC
:1028800018BF9CEA026F4AD04FF0004C4CEA00207F
:102890004CEA012121FA03FCB0EB0C0C0FD412F02E
:1028A000FE0F36D05FEA4C001DD5001240EBC2503F
:1028B00038BF70471CF03F0F18BF70470BE05FEA4E
:1028C0001C20A2F1010240EBC25038BF70471CF03F
:1028D0007F0F18BF7047C3F12003994014BF401EFB
:1028E00020F0010070474FEA1223800808BF7047AC
:1028F000B0FA80FCA2EB0C02CCF1280C60FA0CF0D0
:1029000093EA122F04BF00EBC25070474FEAC37026
:102910007047130A5FEADC1008BF7047F6E79CEACD
:10292000026F04D010EA5C0F08BF0020704710B59A
:10293000FFF745FF40DFF63E81F0004070470000A2
:10294000000000000000010203040607080900005F
:10295000000001020304010202030405060708093E
:102960000A0B0C0D0E0F1010882900080000002023
:1029700010000000940100089829000810000020B1
:1029800098080000B40100080100000010000000D9
:0829900000127A0000000000B3
:0400000508000131BD
:00000001FF
